:020000040000fa
:080000000002040000000000f2
:020000040000fa
:100008009402000094020000940200009402000090
:100018009402000094020000940200009402000080
:100028009402000094020000940200003e0b0000bd
:100038009402000094020000940200009402000060
:100048009402000094020000940200009402000050
:100058009402000094020000940200009402000040
:100068009402000094020000940200009402000030
:100078009402000094020000940200009402000020
:100088009402000094020000940200009402000010
:100098009402000094020000940200009402000000
:1000a80094020000940200009402000094020000f0
:1000b80094020000940200009402000094020000e0
:1000c80094020000940200009402000094020000d0
:1000d80094020000940200009402000094020000c0
:1000e80094020000940200009402000094020000b0
:1000f80094020000940200009402000094020000a0
:10010800940200009402000094020000940200008f
:10011800940200009402000094020000940200007f
:10012800940200009402000094020000940200006f
:10013800940200009402000094020000940200005f
:10014800940200009402000094020000940200004f
:10015800940200009402000094020000940200003f
:10016800940200009402000094020000940200002f
:10017800940200009402000094020000940200001f
:10018800940200009402000094020000940200000f
:1001980094020000940200009402000094020000ff
:1001a80094020000940200009402000094020000ef
:1001b80094020000940200009402000094020000df
:1001c80094020000940200009402000094020000cf
:1001d80094020000940200009402000094020000bf
:1001e80094020000940200009402000094020000af
:0801f8009402000094020000d3
:020000040000fa
:10020800940200009402000094020000940200008e
:10021800940200009402000094020000940200007e
:100228009402000094020000940200003e0b0000bb
:10023800940200009402000094020000940200005e
:10024800940200009402000094020000940200004e
:10025800940200009402000094020000940200003e
:10026800940200009402000094020000940200002e
:10027800940200009402000094020000940200001e
:10028800940200009402000094020000940200000e
:1002980094020000940200009402000094020000fe
:1002a80094020000940200009402000094020000ee
:1002b80094020000940200009402000094020000de
:1002c80094020000940200009402000094020000ce
:1002d80094020000940200009402000094020000be
:1002e80094020000940200009402000094020000ae
:1002f800940200009402000094020000940200009e
:10030800940200009402000094020000940200008d
:10031800940200009402000094020000940200007d
:10032800940200009402000094020000940200006d
:10033800940200009402000094020000940200005d
:10034800940200009402000094020000940200004d
:10035800940200009402000094020000940200003d
:10036800940200009402000094020000940200002d
:10037800940200009402000094020000940200001d
:10038800940200009402000094020000940200000d
:1003980094020000940200009402000094020000fd
:1003a80094020000940200009402000094020000ed
:1003b80094020000940200009402000094020000dd
:1003c80094020000940200009402000094020000cd
:1003d80094020000940200009402000094020000bd
:1003e80094020000940200009402000094020000ad
:0803f8009402000094020000d1
:020000040000fa
:100400008f8e20000e7f22000e0188000000000069
:1004100000012000200288000c000700e0a320005b
:100420000100200011000700000020000000e00093
:10043000020032000000020000000000fc0a02007e
:10044000000000000040da000000fe004440a90067
:10045000000320000000e000030032000000200044
:10046000a00188004440a800000006009101880017
:10047000800078000000eb0015003700e2804000ab
:1004800032a0b4009101ba00e280400032a0b40072
:100490009102ba00e280400032a0b4000002eb00fa
:1004a000472bde00f507b200602ce10004003a00a3
:1004b0000059eb008301e900fdff3e000400370016
:1004c0006128e100010032000082eb000400070017
:1004d0001101ba000200e000e8ff3a000000060047
:1004e0003159ba008301e9000c0032002159ba00e9
:1004f0008301e900080032000400e00003003a0034
:10050000e280400032a0b400f5ff370011d9ba00f4
:100510008301e900faff3a008100e800e180400031
:1005200032a0b400000006000040da000000fe0027
:100530000000fa0068815700cfb89700e08a2000d9
:10054000020007000080fa00000006002f02b00041
:10055000889fbe008a9fbe008c9fbe008e1f7800c1
:10056000c0b79f00a1b79f00b2b79f000006eb0085
:10057000d2013700afb097008100e800a1b79f001b
:1005800054c2b300844f500006003a0001027800c4
:100590008042eb0002c3b30001c2b300b0c2b3009b
:1005a000070037000000fb00cfb09700cf01070025
:1005b000e10f4000c10132000c06e800bf01370026
:1005c00004037800b4437800d3c2b30083cf530050
:1005d0000900320005003c0081cf530008003200c2
:1005e00080cf53000c003a000700370082cf530041
:1005f00009003a00060037000534a000f0ff37007c
:100600000504a000eeff37000514a000ecff370042
:100610000524a000eaff3700628262000100320078
:100620000504a10068826200010032000524a100d7
:100630000702fb000403b100e90f52000c003e006a
:10064000860378000002eb006a20b9003702fb0045
:100650000403b10000024200070378001700fb000a
:100660000003b100e90f5000f7ff36000800370023
:100670000002eb00a0c2b30080cf530004003a0098
:10068000bfb3970047027800b7b79f000603e800a2
:100690008006eb00e7c2b30096cf130009003a00d2
:1006a000e4c35300d6cf1300020032008603780063
:1006b0000a0037003fb09700c0067800b0b79f002f
:1006c0000603e8008603780031c6b300c0c6b30055
:1006d000080037006a69b900820640000703780005
:1006e0003700fb000003b100e90f5000f9ff3600ae
:1006f000f4ff370007017800324378008203780066
:1007000033c7b300834f53001a00320008003c0087
:10071000814f530059003200804f53000c003200cb
:10072000a2b79f00e04f5300690132007400370008
:10073000a2b79f0057c7b300874f53007500320020
:10074000e3c34300874f53006d003a0006003700b3
:100750007081620006c1b300010032000043eb006b
:1007600086c27200e3ff3700a6d79f000574a00081
:100770006b003700a2b79f0036c7b300a6d79f0013
:10078000bfb3970047037800b7b79f00060478000f
:10079000e00f530001003a00888c200088037800a5
:1007a0000003eb00010037000603e80067407b0010
:1007b000e04f5000fcff3a0086047800e08f5600be
:1007c00003003200898f5600010031008d0478004b
:1007d0008006eb00890f52000100360089065200a6
:1007e0006887620014003a0007003700cfb0970016
:1007f000000220003d010700e10f4000010032002f
:100800000c06e8008d06e900e08f5600f7ff3a007d
:100810008086eb0008003700080278003400fb00f7
:1008200004047800cfb0970030010700e10f4000ca
:10083000010032000c06e800090278008404e90097
:10084000e00f5200f4ff3a00e00f57001b013200a6
:1008500007003700cfb097000002200023010700f7
:10086000e10f4000010032000c06e8008d06e900af
:10087000e08f5600f7ff3a0010013700a2b79f0043
:100880003fb0970040037800b0b79f0006007800a3
:10089000cf80de000101780082017800d0b79f0090
:1008a000e1b79f00f2b79f0083bf9f004800de00c2
:1008b000480bdd0000007300a0d79f00f0836200aa
:1008c00009003200e04f500007003200e14f4000c5
:1008d00005003200b0d79f00afeb9700c7d79f004d
:1008e00029002000030037002fe89700b0d79f00b1
:1008f0001900200038fd2f000f044400afff37001f
:10090000a6d79f0028fd2f000f04440019002000e7
:10091000aaff3700a6d79f0006ccb30086c272009c
:100920008582fb00d5b79f0085007800f0826000cb
:100930000e003200bfb297004501be00b5b79f0060
:10094000d2af9f00e3af9f000003eb00f6af9f0024
:100950008003eb0087b79f005fac9700efac970078
:100960007fad97008fb59700060037003fb0970026
:1009700040047800b0b79f00090020000a00200062
:100980000b002000e08f560007003a001d002000f9
:10099000e00f5400e08f5c00e00f5d00e08f5d0031
:1009a000010032008006eb00dfb09700010cb200be
:1009b00091b79f0005082000858f5000100032007d
:1009c000050c2000858f500021003a00a6802000f1
:1009d00015c0b3003600be003601be000040e10085
:1009e00001c8e10002d0e10003d8e100170039009e
:1009f0008542e800f4cf5200f6ff3a0013003700ba
:100a000015c0b30000012000010020006011b800f3
:100a10000040e10001c8e10002d0e10003d8e1009c
:100a20000a003900460020000000d0008180d2007a
:100a30000281d2008381d2000603e900faff3a0066
:100a40008542e800f0cf5200f1ff3a00a5d79f00a1
:100a5000afd397008702fb008d8f520002003d004c
:100a6000add79f0003003700858f560001003d0081
:100a700085067800e00f5200040032005fb0970056
:100a8000e3026000010032000402e900afd09700e9
:100a90008102fb000007eb00850f520001003400cb
:100aa000050752005fb19700640261001c0032002c
:100ab000e202610061026100e08f52000600320034
:100ac000b0022000e00f5200010032000080e80078
:100ad000cfb0970004003700e00f5200060032004c
:100ae000cfb097000002200080000700e10f400017
:100af000010032000c06e800e00f57002900320028
:100b0000cfb097000003200078000700e10f4000fd
:100b1000010032000c06e8000e07e900f6ff37007e
:100b2000e00f57000b003200dfb1970068826100d0
:100b300008003a00cfb09700000220006b000700c9
:100b4000e10f4000010032000c06e8000e07e9004a
:100b5000f8ff3a005fb29700e202620004037800f7
:100b600061026300e08f520006003200b0022000f4
:100b7000e00f5200010032000080e800cfb0970083
:100b800004003700e00f520006003200cfb097009b
:100b90000002200055000700e10f40000100320074
:100ba0000c06e8000d02e9004323dd00258020004b
:100bb00085024300c5af9f004222dd002f003700b1
:100bc0008d06e9009fb3970000082000808f530036
:100bd00010003200040c2000848f53001b003a00e8
:100be000cfa897003102be002103be000800be005e
:100bf0000a01be00a0010700a4002000050020009b
:100c00006033b800a301070004c3b30004424000ee
:100c10000d0037000802be000a03be003fa897007f
:100c20000000e900050033008703d1000683d300ec
:100c30008582d3000482d300f9ff37006f0262007f
:100c4000f18c200061427a00a4d79f002fd1970039
:100c50000200fb00cfb0970024000700e10f400026
:100c6000010032000c06e800cfa99700e88151008e
:100c7000c3af9f003faa970064025200b4af9f0029
:100c8000e08f5600ceff3a00dfb297006882620024
:100c90000a003200e00f570008003400cfb0970080
:100ca0000002200011000700e10f400001003200a7
:100cb0000c06e8000e07e900f8ff3a002fb3970092
:100cc00016407800a0d79f00e04f500029fe3a0060
:100cd0000c0078004f0778004f06be004f05be009d
:100ce0004f04be002f02b10000000600889fbe0026
:100cf0000104780038029000e20262008084eb0078
:100d00003b003200040378000620b20098029000f5
:100d100002003a00e08f520035003a000490a00033
:100d20003404980080047800f90fb200e08f52007c
:100d300002003a00a8029000050c7800ea8f5400e7
:100d400005003a000408b20003003a008800780069
:100d5000d0002000e5ff070018029000d8029000a4
:100d6000850f52000b0032000402e80014049800c2
:100d700018027800094a7800040ce80015c0b30096
:100d8000048e2000054a7800ea8f540018003a00cb
:100d90000500370088007800094078001700070038
:100da0008004780012003700380290000410b2006e
:100db0000f00320018019000a80090004800900039
:100dc0005200070018029000840f50000400320007
:100dd000380290000403b300340498008084eb00d0
:100de0000002eb001404980028029000040c780024
:100df000090078004f04be00000006000200fa005f
:100e0000889fbe00a0ff9f00010478003802900078
:100e1000840278000504b200020032000000fb00ea
:100e200035003700e202620005003a000403b30017
:100e300034049800150498000080eb002e00370061
:100e4000d8049000e08f540006003a001200200001
:100e5000e6805700480090002c0007001904980015
:100e600023003700a8029000e08f520008003a00eb
:100e7000358e200025049800050c78002500200000
:100e800055049800150498000430a000340498001c
:100e900018019000a8009000480090001b00070077
:100ea000280290008082eb0015049800affa9700aa
:100eb000054a7800040ce8002ffa9700ea4f520028
:100ec0000b003a00380290000410b2000800320013
:100ed00018019000a8009000480090000b00070047
:100ee0000002eb0014049800a8029000050c7800a2
:100ef0002ffa97000400fb004f04be000080fa00a8
:100f00000000060000c0da00000006000a00fa0037
:100f1000e20f500022003e0034478000e10f5200f3
:100f200006003200872320004623200024232000cf
:100f300005232000e08f530004003a0087222000a0
:100f40004622200024222000052220000000280044
:100f50001500600003003a00800b780007002800ad
:100f6000958a7300054020009482620001003a00d7
:100f700014a0a000820278000600370094037800d5
:100f80000710b200fdff3200b103fb00070b780031
:100f90008502e900e08f5200f8ff3a0008003700b0
:100fa00034002000b4bf9f00c0bf9f00d1bf9f008e
:100fb000e2bf9f006a805700d2ff07006fb9970019
:100fc000020078000080fa0000000600889fbe0042
:100fd0008a9fbe003004be002005be000404440009
:100fe00085844c0006054d0087854d000898be009d
:100ff0000a90be000440e10005c8e10006d0e1000f
:1010000007d8e10002003100680040001008e80045
:101010004f05be004f04be00000006001000fa009d
:10102000889fbe008a9fbe000605be000404be0065
:101030003002be002003be00c4b79f00d5b79f009a
:10104000e6b79f00f7b79f000802520089825a0056
:101050000a035b008b835b0084bf9f0095bf9f00ea
:10106000a6bf9f00b7bf9f000498be000698be00b1
:10107000110020004fb29700dfb297006fb39700c6
:10108000ffb397000820e10009a8e1000ab0e100e1
:101090000bb8e100010039008000eb00108810005f
:1010a0004f05be004f04be000080fa00000006009d
:1010b0001400fa00889fbe008a9fbe008c9fbe006d
:1010c0003f0007000605be000404be000006eb005a
:1010d000ccb79f00bcb79f00acb79f009cb79f00e8
:1010e0008cb79f000d0420004fb39700bfb297004c
:1010f000860343002fb29700e00f530004003d0029
:101100003d0007000f004000b0ff0700030037005c
:10111000390007000f004000c0ff0700cfb2970062
:1011200095bf9f00e08f5200090035002b0007009b
:1011300014002000050020006033b8000000720099
:101140008180720002017300838173001c0007001c
:101150000c06e8008d0f5600e3ff3a001fba970017
:10116000e00f520005003d000802be000a03be0069
:1011700000fe2f000f00400094ff07004faa9700c9
:10118000e00f520008003a000fb497009fb4970098
:101190002fb59700bfb59700d8b79f00e9b79f005c
:1011a000fab79f008bbf9f000c0007004f06be00e0
:1011b0004f05be004f04be000080fa00000006008c
:1011c000010007000000060090b79f00a1b79f0034
:1011d000b2b79f00c3b79f000000060001000700e0
:1011e000000006001fb09700afb097003fb1970016
:1011f000cfb19700000006004f2bde00870373007d
:10120000a7b79f004f23de0085824200850273004e
:1012100095b79f00ffaa97004f2bde000402420003
:101220000402730084b79f006faa97004f23de006b
:101230008582420085027300f5af9f00e9ff070039
:101240004f18de000402420000027200e4af9f006b
:10125000e4ff0700000040008180480002014900cf
:1012600083814900d8ff07000802be000a03be00c0
:1012700000fe2f0000000600881f780018002000e4
:10128000881f78008aff07008f87e9004f047800e5
:1012900000000600801feb0085ff07008f87e90034
:1012a00000000600889fbe008a9fbe00e00f50002d
:1012b000e08f5800e00f5900e08f59000c003d000e
:1012c0006044b8006055b8000000540081805c00a4
:1012d00002015d0083815d001800200015000700f9
:1012e00008003d00180007000004eb00050037006f
:1012f0000004eb000f00070002003d001200070091
:1013000018002000dcff0700e00f54000600320048
:101310006022b8006033b8000000520081805a009b
:1013200002015b0083815b004f05be004f04be00dd
:1013300000000600e00f5200e08f5a00e00f5b0053
:10134000e08f5b00000006006044b8006055b80004
:101350000402540085825c0006035d0087835d0003
:1013600000000600889fbe008a9fbe008c1f780088
:10137000e00f5000e08f5800e00f5900e08f590057
:101380000d003d006044b8006055b80000005400f6
:1013900081805c0002015d0083815d001c002000f3
:1013a0000820e10009a8e1000ab0e1000bb8e10063
:1013b0000d003d00080037000006eb00e00f520072
:1013c000e08f5a00e00f5b00e08f5b0006003d00fd
:1013d0006044b8006055b8000402540085825c0087
:1013e00006035d0087835d00aaff0700e00f56003b
:1013f000060032006022b8006033b80000005200de
:1014000081805a0002015b0083815b004f067800f7
:0c1410004f05be004f04be0000000600a7
:020000040000fa
:10141c004c61000062200000323a000020440000c1
:10142c006562000075670000676900006e67000068
:10143c002053000074610000746500006d650000ad
:10144c006e740000730a00000d000000527500005d
:10145c006e6e0000696e0000673a000000300000fc
:10146c00303a0000303000002e3000003000000018
:020000040000fa
:10147c00000800000200000000000000e00800006e
:10148c000600000000000000a2080000260000007a
:10149c0002000000e108000000e108000900000063
:1014ac0000020000e308000000e308000e02010047
:1014bc000000000000000000000000000602020016
:1014cc0000000000a2080000c8080000180000007e
:1014dc0002000000286e75006c6c29000030310091
:1014ec0032333400353637003839610062636400ba
:1014fc006566000002080000a00000000200000069
:10150c00010000000000000000000a0000000000c4
:10151c00000000000064000000000000000000005b
:10152c00e80300000000000000001000270000008d
:10153c000000000000a08600010000000000000078
:10154c0040420f0000000000000080009698000050
:10155c00000000000000e100f505000000000000a4
:10156c0000ca9a003b00000000000000e40b54008d
:10157c00020000000000e8007648170000000000a0
:10158c000010a500d4e8000000000000a0724e007e
:10159c0018090000000040007a10f3005a00000007
:1015ac000080c600a47e8d000300000000c16f0007
:1015bc00f2862300000000008a5d7800456301007c
:1015cc0000006400a7b3b600e00d000000e889003d
:1015dc000423c7008a000000e60800000200000097
:0c15ec00020000000100000000000000f0
:020000040000fa
:1015f8000000fa00f40f2e00140888000002eb0027
:10160800040888008460a9009460a8002408800069
:101618000440a0000450a0002408880005e1a800a8
:10162800e4a02800841f7800bffb07008f87e9002b
:1016380048000700c0a22800550007008040eb00c2
:1016480010c0b3004900070050a32800500007004d
:1016580041c0b30010c0b30044000700048020005c
:10166800144278000443b0000440780044000700a6
:10167800f7ff3700801f7800841f78003400f800d7
:1016880000002000a00188000000fa008460a90082
:101698000480200014427800e84f520004003e0005
:1016a80004802000144278000442e800010037005a
:1016b8000042eb000440780000e8b7000080fa0020
:1016c8003400f9004f0278004f007800004006000f
:1016d8000200fa00000f78000080fa0000000600ff
:1016e8000400fa00004f7800110798009e42780025
:1016f80061c262000482fb00610262004722dd00d1
:1017080066168000f5f72f008502630004827200d8
:10171800641688001e009000edff0700ccc2a800e8
:101728001e009000eaff0700ccc2a9001e0090002e
:10173800e7ff07000080fa00000006000600fa0034
:10174800004f780011079800220798000080fa00df
:10175800000006000000fa000080fa000000060001
:101768000000fa000080fa00000006000200fa00fb
:10177800004f7800114798000080fa00000006002a
:101788000200fa00004f78000080fa00000006000e
:101798000200fa00000f78000080fa00000006003e
:020000040000fa
:020000040001f9
:0457f800ad7b000085
:020000040000fa
:020000040001f9
:0457fc003f3f00002b
:00000001FF
